{
  "_format": "hh-sol-artifact-1",
  "contractName": "CrowdFundManager",
  "sourceName": "contracts/Crowdfund.sol",
  "abi": [
    {
      "anonymous": false,
      "inputs": [
        {
          "indexed": true,
          "internalType": "uint256",
          "name": "deletableCampaign",
          "type": "uint256"
        }
      ],
      "name": "AbleToDelete",
      "type": "event"
    },
    {
      "anonymous": false,
      "inputs": [
        {
          "indexed": true,
          "internalType": "uint256",
          "name": "cancelledCampaign",
          "type": "uint256"
        }
      ],
      "name": "Cancelled",
      "type": "event"
    },
    {
      "anonymous": false,
      "inputs": [
        {
          "indexed": true,
          "internalType": "uint256",
          "name": "failedCampaign",
          "type": "uint256"
        }
      ],
      "name": "Failed",
      "type": "event"
    },
    {
      "anonymous": false,
      "inputs": [
        {
          "indexed": true,
          "internalType": "uint256",
          "name": "successfullCampaign",
          "type": "uint256"
        }
      ],
      "name": "Success",
      "type": "event"
    },
    {
      "stateMutability": "payable",
      "type": "fallback"
    },
    {
      "inputs": [
        {
          "internalType": "uint256",
          "name": "",
          "type": "uint256"
        }
      ],
      "name": "campaigns",
      "outputs": [
        {
          "internalType": "uint256",
          "name": "id",
          "type": "uint256"
        },
        {
          "internalType": "string",
          "name": "name",
          "type": "string"
        },
        {
          "internalType": "string",
          "name": "description",
          "type": "string"
        },
        {
          "internalType": "address",
          "name": "owner",
          "type": "address"
        },
        {
          "internalType": "uint256",
          "name": "endTime",
          "type": "uint256"
        },
        {
          "internalType": "uint256",
          "name": "targetAmt",
          "type": "uint256"
        },
        {
          "internalType": "uint256",
          "name": "currAmt",
          "type": "uint256"
        },
        {
          "internalType": "enum CrowdFundManager.Status",
          "name": "status",
          "type": "uint8"
        }
      ],
      "stateMutability": "view",
      "type": "function"
    },
    {
      "inputs": [
        {
          "internalType": "uint256",
          "name": "id",
          "type": "uint256"
        }
      ],
      "name": "cancelCampaign",
      "outputs": [],
      "stateMutability": "nonpayable",
      "type": "function"
    },
    {
      "inputs": [
        {
          "internalType": "uint256",
          "name": "id",
          "type": "uint256"
        }
      ],
      "name": "deleteCampaign",
      "outputs": [],
      "stateMutability": "nonpayable",
      "type": "function"
    },
    {
      "inputs": [
        {
          "internalType": "uint256",
          "name": "id",
          "type": "uint256"
        }
      ],
      "name": "fund",
      "outputs": [],
      "stateMutability": "payable",
      "type": "function"
    },
    {
      "inputs": [
        {
          "internalType": "uint256",
          "name": "",
          "type": "uint256"
        },
        {
          "internalType": "address",
          "name": "",
          "type": "address"
        }
      ],
      "name": "fundersToAmt",
      "outputs": [
        {
          "internalType": "uint256",
          "name": "",
          "type": "uint256"
        }
      ],
      "stateMutability": "view",
      "type": "function"
    },
    {
      "inputs": [],
      "name": "getCampaigns",
      "outputs": [
        {
          "components": [
            {
              "internalType": "uint256",
              "name": "id",
              "type": "uint256"
            },
            {
              "internalType": "string",
              "name": "name",
              "type": "string"
            },
            {
              "internalType": "string",
              "name": "description",
              "type": "string"
            },
            {
              "internalType": "address",
              "name": "owner",
              "type": "address"
            },
            {
              "internalType": "uint256",
              "name": "endTime",
              "type": "uint256"
            },
            {
              "internalType": "uint256",
              "name": "targetAmt",
              "type": "uint256"
            },
            {
              "internalType": "uint256",
              "name": "currAmt",
              "type": "uint256"
            },
            {
              "internalType": "enum CrowdFundManager.Status",
              "name": "status",
              "type": "uint8"
            }
          ],
          "internalType": "struct CrowdFundManager.Campaign[]",
          "name": "",
          "type": "tuple[]"
        }
      ],
      "stateMutability": "view",
      "type": "function"
    },
    {
      "inputs": [
        {
          "internalType": "uint256",
          "name": "",
          "type": "uint256"
        }
      ],
      "name": "isValidCampaign",
      "outputs": [
        {
          "internalType": "bool",
          "name": "",
          "type": "bool"
        }
      ],
      "stateMutability": "view",
      "type": "function"
    },
    {
      "inputs": [
        {
          "internalType": "string",
          "name": "name",
          "type": "string"
        },
        {
          "internalType": "string",
          "name": "desc",
          "type": "string"
        },
        {
          "internalType": "uint256",
          "name": "duration",
          "type": "uint256"
        },
        {
          "internalType": "uint256",
          "name": "targetAmt",
          "type": "uint256"
        }
      ],
      "name": "launch",
      "outputs": [],
      "stateMutability": "nonpayable",
      "type": "function"
    },
    {
      "inputs": [],
      "name": "noOfCampaigns",
      "outputs": [
        {
          "internalType": "uint256",
          "name": "",
          "type": "uint256"
        }
      ],
      "stateMutability": "view",
      "type": "function"
    },
    {
      "inputs": [],
      "name": "noOfDeletedCampaigns",
      "outputs": [
        {
          "internalType": "uint256",
          "name": "",
          "type": "uint256"
        }
      ],
      "stateMutability": "view",
      "type": "function"
    },
    {
      "inputs": [
        {
          "internalType": "uint256",
          "name": "id",
          "type": "uint256"
        }
      ],
      "name": "refund",
      "outputs": [],
      "stateMutability": "nonpayable",
      "type": "function"
    },
    {
      "inputs": [
        {
          "internalType": "uint256",
          "name": "id",
          "type": "uint256"
        }
      ],
      "name": "withdraw",
      "outputs": [],
      "stateMutability": "nonpayable",
      "type": "function"
    },
    {
      "stateMutability": "payable",
      "type": "receive"
    }
  ],
  "bytecode": "0x608060405234801561001057600080fd5b506124c6806100206000396000f3fe6080604052600436106100ab5760003560e01c80636b382b85116100645780636b382b85146101c757806375970193146101f2578063a6b036331461021b578063ab8e40f514610246578063ca1d209d14610283578063f53d79a71461029f576100b2565b8063141961bc146100b457806317818e59146100f8578063278ecde1146101235780632e1a7d4d1461014c57806345598b4a146101755780634c432b581461019e576100b2565b366100b257005b005b3480156100c057600080fd5b506100db60048036038101906100d691906115f9565b6102dc565b6040516100ef98979695949392919061177d565b60405180910390f35b34801561010457600080fd5b5061010d610461565b60405161011a9190611809565b60405180910390f35b34801561012f57600080fd5b5061014a600480360381019061014591906115f9565b610467565b005b34801561015857600080fd5b50610173600480360381019061016e91906115f9565b610738565b005b34801561018157600080fd5b5061019c600480360381019061019791906115f9565b61094e565b005b3480156101aa57600080fd5b506101c560048036038101906101c09190611959565b610a77565b005b3480156101d357600080fd5b506101dc610c30565b6040516101e99190611809565b60405180910390f35b3480156101fe57600080fd5b50610219600480360381019061021491906115f9565b610c36565b005b34801561022757600080fd5b50610230611018565b60405161023d9190611be8565b60405180910390f35b34801561025257600080fd5b5061026d60048036038101906102689190611c36565b611307565b60405161027a9190611809565b60405180910390f35b61029d600480360381019061029891906115f9565b61132c565b005b3480156102ab57600080fd5b506102c660048036038101906102c191906115f9565b6114c5565b6040516102d39190611c91565b60405180910390f35b600260205280600052604060002060009150905080600001549080600101805461030590611cdb565b80601f016020809104026020016040519081016040528092919081815260200182805461033190611cdb565b801561037e5780601f106103535761010080835404028352916020019161037e565b820191906000526020600020905b81548152906001019060200180831161036157829003601f168201915b50505050509080600201805461039390611cdb565b80601f01602080910402602001604051908101604052809291908181526020018280546103bf90611cdb565b801561040c5780601f106103e15761010080835404028352916020019161040c565b820191906000526020600020905b8154815290600101906020018083116103ef57829003601f168201915b5050505050908060030160009054906101000a900473ffffffffffffffffffffffffffffffffffffffff16908060040154908060050154908060060154908060070160009054906101000a900460ff16905088565b60005481565b60006002600083815260200190815260200160002090506001600381111561049257610491611706565b5b60038111156104a4576104a3611706565b5b8160070160009054906101000a900460ff1660038111156104c8576104c7611706565b5b148061051a57506003808111156104e2576104e1611706565b5b60038111156104f4576104f3611706565b5b8160070160009054906101000a900460ff16600381111561051857610517611706565b5b145b610559576040517f08c379a000000000000000000000000000000000000000000000000000000000815260040161055090611d58565b60405180910390fd5b60006003600084815260200190815260200160002060003373ffffffffffffffffffffffffffffffffffffffff1673ffffffffffffffffffffffffffffffffffffffff16815260200190815260200160002054116105ec576040517f08c379a00000000000000000000000000000000000000000000000000000000081526004016105e390611dea565b60405180910390fd5b60006003600084815260200190815260200160002060003373ffffffffffffffffffffffffffffffffffffffff1673ffffffffffffffffffffffffffffffffffffffff16815260200190815260200160002054905060006003600085815260200190815260200160002060003373ffffffffffffffffffffffffffffffffffffffff1673ffffffffffffffffffffffffffffffffffffffff16815260200190815260200160002081905550808260060160008282546106ab9190611e39565b9250508190555060008260060154036106ec57827fe57488b0d54e8d5de714dc89924dd34802ed9a02753638cda82049efb807c87e60405160405180910390a25b3373ffffffffffffffffffffffffffffffffffffffff166108fc829081150290604051600060405180830381858888f19350505050158015610732573d6000803e3d6000fd5b50505050565b60006002600083815260200190815260200160002090508060040154421180156107aa57506001600381111561077157610770611706565b5b600381111561078357610782611706565b5b8160070160009054906101000a900460ff1660038111156107a7576107a6611706565b5b14155b6107e9576040517f08c379a00000000000000000000000000000000000000000000000000000000081526004016107e090611edf565b60405180910390fd5b80600501548160060154106108de57600081600601819055508060030160009054906101000a900473ffffffffffffffffffffffffffffffffffffffff1673ffffffffffffffffffffffffffffffffffffffff166108fc479081150290604051600060405180830381858888f1935050505015801561086c573d6000803e3d6000fd5b506002600381111561088157610880611706565b5b8160070160006101000a81548160ff021916908360038111156108a7576108a6611706565b5b0217905550817f36d4ea4d2a836eb91a99a36614ff84d373648ee61d232da708aa2eb96ef45c5860405160405180910390a261094a565b6003808111156108f1576108f0611706565b5b8160070160006101000a81548160ff0219169083600381111561091757610916611706565b5b0217905550817fc77ea6414b21b2cf2170f259ee35ec16a7cbf16eeace77cc3ae8c6d52556881a60405160405180910390a25b5050565b60006002600083815260200190815260200160002090503373ffffffffffffffffffffffffffffffffffffffff168160030160009054906101000a900473ffffffffffffffffffffffffffffffffffffffff1673ffffffffffffffffffffffffffffffffffffffff16146109f7576040517f08c379a00000000000000000000000000000000000000000000000000000000081526004016109ee90611f4b565b60405180910390fd5b80600401544210610a0757600080fd5b60016003811115610a1b57610a1a611706565b5b8160070160006101000a81548160ff02191690836003811115610a4157610a40611706565b5b0217905550817fc41d93b8bfbf9fd7cf5bfe271fd649ab6a6fec0ea101c23b82a2a28eca2533a960405160405180910390a25050565b60008242610a859190611f6b565b9050600060405180610100016040528060005481526020018781526020018681526020013373ffffffffffffffffffffffffffffffffffffffff1681526020018381526020018481526020016000815260200160006003811115610aec57610aeb611706565b5b6003811115610afe57610afd611706565b5b8152509050806002600080548152602001908152602001600020600082015181600001556020820151816001019081610b37919061214b565b506040820151816002019081610b4d919061214b565b5060608201518160030160006101000a81548173ffffffffffffffffffffffffffffffffffffffff021916908373ffffffffffffffffffffffffffffffffffffffff1602179055506080820151816004015560a0820151816005015560c0820151816006015560e08201518160070160006101000a81548160ff02191690836003811115610bde57610bdd611706565b5b02179055509050506001600460008054815260200190815260200160002060006101000a81548160ff0219169083151502179055506001600054610c229190611f6b565b600081905550505050505050565b60015481565b6004600082815260200190815260200160002060009054906101000a900460ff168015610cbd575060006003811115610c7257610c71611706565b5b6003811115610c8457610c83611706565b5b6002600083815260200190815260200160002060070160009054906101000a900460ff166003811115610cba57610cb9611706565b5b14155b610cfc576040517f08c379a0000000000000000000000000000000000000000000000000000000008152600401610cf39061228f565b60405180910390fd5b6000600260008381526020019081526020016000206040518061010001604052908160008201548152602001600182018054610d3790611cdb565b80601f0160208091040260200160405190810160405280929190818152602001828054610d6390611cdb565b8015610db05780601f10610d8557610100808354040283529160200191610db0565b820191906000526020600020905b815481529060010190602001808311610d9357829003601f168201915b50505050508152602001600282018054610dc990611cdb565b80601f0160208091040260200160405190810160405280929190818152602001828054610df590611cdb565b8015610e425780601f10610e1757610100808354040283529160200191610e42565b820191906000526020600020905b815481529060010190602001808311610e2557829003601f168201915b505050505081526020016003820160009054906101000a900473ffffffffffffffffffffffffffffffffffffffff1673ffffffffffffffffffffffffffffffffffffffff1673ffffffffffffffffffffffffffffffffffffffff1681526020016004820154815260200160058201548152602001600682015481526020016007820160009054906101000a900460ff166003811115610ee457610ee3611706565b5b6003811115610ef657610ef5611706565b5b81525050905060008160c0015114610f43576040517f08c379a0000000000000000000000000000000000000000000000000000000008152600401610f3a90612321565b60405180910390fd5b60026000838152602001908152602001600020600080820160009055600182016000610f6f91906114e5565b600282016000610f7f91906114e5565b6003820160006101000a81549073ffffffffffffffffffffffffffffffffffffffff02191690556004820160009055600582016000905560068201600090556007820160006101000a81549060ff0219169055505060006004600084815260200190815260200160002060006101000a81548160ff0219169083151502179055506001805461100e9190611f6b565b6001819055505050565b6060600060015460005461102c9190611e39565b905060008167ffffffffffffffff81111561104a5761104961182e565b5b60405190808252806020026020018201604052801561108357816020015b611070611525565b8152602001906001900390816110685790505b5090506000805b6000548110156112fd576004600082815260200190815260200160002060009054906101000a900460ff16156112ea5760006002600083815260200190815260200160002090508060405180610100016040529081600082015481526020016001820180546110f890611cdb565b80601f016020809104026020016040519081016040528092919081815260200182805461112490611cdb565b80156111715780601f1061114657610100808354040283529160200191611171565b820191906000526020600020905b81548152906001019060200180831161115457829003601f168201915b5050505050815260200160028201805461118a90611cdb565b80601f01602080910402602001604051908101604052809291908181526020018280546111b690611cdb565b80156112035780601f106111d857610100808354040283529160200191611203565b820191906000526020600020905b8154815290600101906020018083116111e657829003601f168201915b505050505081526020016003820160009054906101000a900473ffffffffffffffffffffffffffffffffffffffff1673ffffffffffffffffffffffffffffffffffffffff1673ffffffffffffffffffffffffffffffffffffffff1681526020016004820154815260200160058201548152602001600682015481526020016007820160009054906101000a900460ff1660038111156112a5576112a4611706565b5b60038111156112b7576112b6611706565b5b815250508484815181106112ce576112cd612341565b5b60200260200101819052506001836112e69190611f6b565b9250505b80806112f590612370565b91505061108a565b5081935050505090565b6003602052816000526040600020602052806000526040600020600091509150505481565b6004600082815260200190815260200160002060009054906101000a900460ff1661138c576040517f08c379a000000000000000000000000000000000000000000000000000000000815260040161138390612404565b60405180910390fd5b600060038111156113a05761139f611706565b5b60038111156113b2576113b1611706565b5b6002600083815260200190815260200160002060070160009054906101000a900460ff1660038111156113e8576113e7611706565b5b14611428576040517f08c379a000000000000000000000000000000000000000000000000000000000815260040161141f90612470565b60405180910390fd5b6000600260008381526020019081526020016000209050348160060160008282546114539190611f6b565b92505081905550346003600084815260200190815260200160002060003373ffffffffffffffffffffffffffffffffffffffff1673ffffffffffffffffffffffffffffffffffffffff16815260200190815260200160002060008282546114ba9190611f6b565b925050819055505050565b60046020528060005260406000206000915054906101000a900460ff1681565b5080546114f190611cdb565b6000825580601f106115035750611522565b601f0160209004906000526020600020908101906115219190611592565b5b50565b604051806101000160405280600081526020016060815260200160608152602001600073ffffffffffffffffffffffffffffffffffffffff1681526020016000815260200160008152602001600081526020016000600381111561158c5761158b611706565b5b81525090565b5b808211156115ab576000816000905550600101611593565b5090565b6000604051905090565b600080fd5b600080fd5b6000819050919050565b6115d6816115c3565b81146115e157600080fd5b50565b6000813590506115f3816115cd565b92915050565b60006020828403121561160f5761160e6115b9565b5b600061161d848285016115e4565b91505092915050565b61162f816115c3565b82525050565b600081519050919050565b600082825260208201905092915050565b60005b8381101561166f578082015181840152602081019050611654565b60008484015250505050565b6000601f19601f8301169050919050565b600061169782611635565b6116a18185611640565b93506116b1818560208601611651565b6116ba8161167b565b840191505092915050565b600073ffffffffffffffffffffffffffffffffffffffff82169050919050565b60006116f0826116c5565b9050919050565b611700816116e5565b82525050565b7f4e487b7100000000000000000000000000000000000000000000000000000000600052602160045260246000fd5b6004811061174657611745611706565b5b50565b600081905061175782611735565b919050565b600061176782611749565b9050919050565b6117778161175c565b82525050565b600061010082019050611793600083018b611626565b81810360208301526117a5818a61168c565b905081810360408301526117b9818961168c565b90506117c860608301886116f7565b6117d56080830187611626565b6117e260a0830186611626565b6117ef60c0830185611626565b6117fc60e083018461176e565b9998505050505050505050565b600060208201905061181e6000830184611626565b92915050565b600080fd5b600080fd5b7f4e487b7100000000000000000000000000000000000000000000000000000000600052604160045260246000fd5b6118668261167b565b810181811067ffffffffffffffff821117156118855761188461182e565b5b80604052505050565b60006118986115af565b90506118a4828261185d565b919050565b600067ffffffffffffffff8211156118c4576118c361182e565b5b6118cd8261167b565b9050602081019050919050565b82818337600083830152505050565b60006118fc6118f7846118a9565b61188e565b90508281526020810184848401111561191857611917611829565b5b6119238482856118da565b509392505050565b600082601f8301126119405761193f611824565b5b81356119508482602086016118e9565b91505092915050565b60008060008060808587031215611973576119726115b9565b5b600085013567ffffffffffffffff811115611991576119906115be565b5b61199d8782880161192b565b945050602085013567ffffffffffffffff8111156119be576119bd6115be565b5b6119ca8782880161192b565b93505060406119db878288016115e4565b92505060606119ec878288016115e4565b91505092959194509250565b600081519050919050565b600082825260208201905092915050565b6000819050602082019050919050565b611a2d816115c3565b82525050565b600082825260208201905092915050565b6000611a4f82611635565b611a598185611a33565b9350611a69818560208601611651565b611a728161167b565b840191505092915050565b611a86816116e5565b82525050565b611a958161175c565b82525050565b600061010083016000830151611ab46000860182611a24565b5060208301518482036020860152611acc8282611a44565b91505060408301518482036040860152611ae68282611a44565b9150506060830151611afb6060860182611a7d565b506080830151611b0e6080860182611a24565b5060a0830151611b2160a0860182611a24565b5060c0830151611b3460c0860182611a24565b5060e0830151611b4760e0860182611a8c565b508091505092915050565b6000611b5e8383611a9b565b905092915050565b6000602082019050919050565b6000611b7e826119f8565b611b888185611a03565b935083602082028501611b9a85611a14565b8060005b85811015611bd65784840389528151611bb78582611b52565b9450611bc283611b66565b925060208a01995050600181019050611b9e565b50829750879550505050505092915050565b60006020820190508181036000830152611c028184611b73565b905092915050565b611c13816116e5565b8114611c1e57600080fd5b50565b600081359050611c3081611c0a565b92915050565b60008060408385031215611c4d57611c4c6115b9565b5b6000611c5b858286016115e4565b9250506020611c6c85828601611c21565b9150509250929050565b60008115159050919050565b611c8b81611c76565b82525050565b6000602082019050611ca66000830184611c82565b92915050565b7f4e487b7100000000000000000000000000000000000000000000000000000000600052602260045260246000fd5b60006002820490506001821680611cf357607f821691505b602082108103611d0657611d05611cac565b5b50919050565b7f4e6f742061626c6520746f20726566756e642e00000000000000000000000000600082015250565b6000611d42601383611640565b9150611d4d82611d0c565b602082019050919050565b60006020820190508181036000830152611d7181611d35565b9050919050565b7f596f7520646964206e6f7420636f6e7472696275746520746f2074686973206360008201527f616d706169676e21000000000000000000000000000000000000000000000000602082015250565b6000611dd4602883611640565b9150611ddf82611d78565b604082019050919050565b60006020820190508181036000830152611e0381611dc7565b9050919050565b7f4e487b7100000000000000000000000000000000000000000000000000000000600052601160045260246000fd5b6000611e44826115c3565b9150611e4f836115c3565b9250828203905081811115611e6757611e66611e0a565b5b92915050565b7f43616d706169676e206973207374696c6c206f6e676f696e67206f722068617360008201527f206265656e2063616e63656c6c65642100000000000000000000000000000000602082015250565b6000611ec9603083611640565b9150611ed482611e6d565b604082019050919050565b60006020820190508181036000830152611ef881611ebc565b9050919050565b7f4e6f74206f776e65720000000000000000000000000000000000000000000000600082015250565b6000611f35600983611640565b9150611f4082611eff565b602082019050919050565b60006020820190508181036000830152611f6481611f28565b9050919050565b6000611f76826115c3565b9150611f81836115c3565b9250828201905080821115611f9957611f98611e0a565b5b92915050565b60008190508160005260206000209050919050565b60006020601f8301049050919050565b600082821b905092915050565b6000600883026120017fffffffffffffffffffffffffffffffffffffffffffffffffffffffffffffffff82611fc4565b61200b8683611fc4565b95508019841693508086168417925050509392505050565b6000819050919050565b600061204861204361203e846115c3565b612023565b6115c3565b9050919050565b6000819050919050565b6120628361202d565b61207661206e8261204f565b848454611fd1565b825550505050565b600090565b61208b61207e565b612096818484612059565b505050565b5b818110156120ba576120af600082612083565b60018101905061209c565b5050565b601f8211156120ff576120d081611f9f565b6120d984611fb4565b810160208510156120e8578190505b6120fc6120f485611fb4565b83018261209b565b50505b505050565b600082821c905092915050565b600061212260001984600802612104565b1980831691505092915050565b600061213b8383612111565b9150826002028217905092915050565b61215482611635565b67ffffffffffffffff81111561216d5761216c61182e565b5b6121778254611cdb565b6121828282856120be565b600060209050601f8311600181146121b557600084156121a3578287015190505b6121ad858261212f565b865550612215565b601f1984166121c386611f9f565b60005b828110156121eb578489015182556001820191506020850194506020810190506121c6565b868310156122085784890151612204601f891682612111565b8355505b6001600288020188555050505b505050505050565b7f496e76616c69642063616d706169676e206f722063616e6e6f742064656c657460008201527f65206f6e676f696e672063616d706169676e2100000000000000000000000000602082015250565b6000612279603383611640565b91506122848261221d565b604082019050919050565b600060208201905081810360008301526122a88161226c565b9050919050565b7f726566756e6420746f20636f6e7472696275746f7273206e6f7420636f6d706c60008201527f6574652f66756e6473206e6f742077697468647261776e210000000000000000602082015250565b600061230b603883611640565b9150612316826122af565b604082019050919050565b6000602082019050818103600083015261233a816122fe565b9050919050565b7f4e487b7100000000000000000000000000000000000000000000000000000000600052603260045260246000fd5b600061237b826115c3565b91507fffffffffffffffffffffffffffffffffffffffffffffffffffffffffffffffff82036123ad576123ac611e0a565b5b600182019050919050565b7f43616d706169676e20646f6573206e6f74206578697374210000000000000000600082015250565b60006123ee601883611640565b91506123f9826123b8565b602082019050919050565b6000602082019050818103600083015261241d816123e1565b9050919050565b7f43616d706169676e206973206e6f74206f6e676f696e67210000000000000000600082015250565b600061245a601883611640565b915061246582612424565b602082019050919050565b600060208201905081810360008301526124898161244d565b905091905056fea2646970667358221220a9b9b6cf684fee7b72db5c3b3dee91fb0cb2a48abb75db161270dcecf758dea164736f6c63430008120033",
  "linkReferences": {},
  "deployedLinkReferences": {}
}